{
  "_format": "hh-sol-artifact-1",
  "contractName": "Raffle",
  "sourceName": "contracts/Raffle.sol",
  "abi": [
    {
      "inputs": [
        {
          "internalType": "address",
          "name": "vrfCoordinatorV2",
          "type": "address"
        },
        {
          "internalType": "uint64",
          "name": "subscriptionId",
          "type": "uint64"
        },
        {
          "internalType": "bytes32",
          "name": "gasLane",
          "type": "bytes32"
        },
        {
          "internalType": "uint256",
          "name": "interval",
          "type": "uint256"
        },
        {
          "internalType": "uint256",
          "name": "entranceFee",
          "type": "uint256"
        },
        {
          "internalType": "uint32",
          "name": "callbackGasLimit",
          "type": "uint32"
        }
      ],
      "stateMutability": "nonpayable",
      "type": "constructor"
    },
    {
      "inputs": [
        {
          "internalType": "address",
          "name": "have",
          "type": "address"
        },
        {
          "internalType": "address",
          "name": "want",
          "type": "address"
        }
      ],
      "name": "OnlyCoordinatorCanFulfill",
      "type": "error"
    },
    {
      "inputs": [],
      "name": "Raffle__RaffleNotOpen",
      "type": "error"
    },
    {
      "inputs": [],
      "name": "Raffle__SendMoreToEnterRaffle",
      "type": "error"
    },
    {
      "inputs": [],
      "name": "Raffle__TransferFailed",
      "type": "error"
    },
    {
      "inputs": [
        {
          "internalType": "uint256",
          "name": "currentBalance",
          "type": "uint256"
        },
        {
          "internalType": "uint256",
          "name": "numPlayers",
          "type": "uint256"
        },
        {
          "internalType": "uint256",
          "name": "raffleState",
          "type": "uint256"
        }
      ],
      "name": "Raffle__UpkeepNotNeeded",
      "type": "error"
    },
    {
      "anonymous": false,
      "inputs": [
        {
          "indexed": true,
          "internalType": "address",
          "name": "player",
          "type": "address"
        }
      ],
      "name": "RaffleEnter",
      "type": "event"
    },
    {
      "anonymous": false,
      "inputs": [
        {
          "indexed": true,
          "internalType": "uint256",
          "name": "requestId",
          "type": "uint256"
        }
      ],
      "name": "RequestedRaffleWinner",
      "type": "event"
    },
    {
      "anonymous": false,
      "inputs": [
        {
          "indexed": true,
          "internalType": "address",
          "name": "player",
          "type": "address"
        }
      ],
      "name": "WinnerPicked",
      "type": "event"
    },
    {
      "inputs": [
        {
          "internalType": "bytes",
          "name": "",
          "type": "bytes"
        }
      ],
      "name": "checkUpkeep",
      "outputs": [
        {
          "internalType": "bool",
          "name": "upkeepNeeded",
          "type": "bool"
        },
        {
          "internalType": "bytes",
          "name": "",
          "type": "bytes"
        }
      ],
      "stateMutability": "view",
      "type": "function"
    },
    {
      "inputs": [],
      "name": "enterRaffle",
      "outputs": [],
      "stateMutability": "payable",
      "type": "function"
    },
    {
      "inputs": [],
      "name": "getEntranceFee",
      "outputs": [
        {
          "internalType": "uint256",
          "name": "",
          "type": "uint256"
        }
      ],
      "stateMutability": "view",
      "type": "function"
    },
    {
      "inputs": [],
      "name": "getInterval",
      "outputs": [
        {
          "internalType": "uint256",
          "name": "",
          "type": "uint256"
        }
      ],
      "stateMutability": "view",
      "type": "function"
    },
    {
      "inputs": [],
      "name": "getLastTimeStamp",
      "outputs": [
        {
          "internalType": "uint256",
          "name": "",
          "type": "uint256"
        }
      ],
      "stateMutability": "view",
      "type": "function"
    },
    {
      "inputs": [],
      "name": "getNumWords",
      "outputs": [
        {
          "internalType": "uint256",
          "name": "",
          "type": "uint256"
        }
      ],
      "stateMutability": "pure",
      "type": "function"
    },
    {
      "inputs": [],
      "name": "getNumberOfPlayers",
      "outputs": [
        {
          "internalType": "uint256",
          "name": "",
          "type": "uint256"
        }
      ],
      "stateMutability": "view",
      "type": "function"
    },
    {
      "inputs": [
        {
          "internalType": "uint256",
          "name": "index",
          "type": "uint256"
        }
      ],
      "name": "getPlayer",
      "outputs": [
        {
          "internalType": "address",
          "name": "",
          "type": "address"
        }
      ],
      "stateMutability": "view",
      "type": "function"
    },
    {
      "inputs": [],
      "name": "getRaffleState",
      "outputs": [
        {
          "internalType": "enum Raffle.RaffleState",
          "name": "",
          "type": "uint8"
        }
      ],
      "stateMutability": "view",
      "type": "function"
    },
    {
      "inputs": [],
      "name": "getRecentWinner",
      "outputs": [
        {
          "internalType": "address",
          "name": "",
          "type": "address"
        }
      ],
      "stateMutability": "view",
      "type": "function"
    },
    {
      "inputs": [],
      "name": "getRequestConfirmations",
      "outputs": [
        {
          "internalType": "uint256",
          "name": "",
          "type": "uint256"
        }
      ],
      "stateMutability": "pure",
      "type": "function"
    },
    {
      "inputs": [
        {
          "internalType": "bytes",
          "name": "",
          "type": "bytes"
        }
      ],
      "name": "performUpkeep",
      "outputs": [],
      "stateMutability": "nonpayable",
      "type": "function"
    },
    {
      "inputs": [
        {
          "internalType": "uint256",
          "name": "requestId",
          "type": "uint256"
        },
        {
          "internalType": "uint256[]",
          "name": "randomWords",
          "type": "uint256[]"
        }
      ],
      "name": "rawFulfillRandomWords",
      "outputs": [],
      "stateMutability": "nonpayable",
      "type": "function"
    }
  ],
  "bytecode": "0x6101606040523480156200001257600080fd5b50604051620020173803806200201783398181016040528101906200003891906200039f565b858073ffffffffffffffffffffffffffffffffffffffff1660808173ffffffffffffffffffffffffffffffffffffffff1660601b81525050506200008d6769217c59634226b460c01b6200023660201b60201c565b620000a9675aa31ac4c7c58da160c01b6200023660201b60201c565b8573ffffffffffffffffffffffffffffffffffffffff1660a08173ffffffffffffffffffffffffffffffffffffffff1660601b81525050620000fc67f1637161f09ab92c60c01b6200023660201b60201c565b8360e0818152505062000120678f1ce1646f33a1cd60c01b6200023660201b60201c565b8261012081815250506200014567a1d3298e2c9e404c60c01b6200023660201b60201c565b8467ffffffffffffffff1660c08167ffffffffffffffff1660c01b8152505062000180676c165158e885d77760c01b6200023660201b60201c565b816101408181525050620001a567c98dbc4906f1ac0d60c01b6200023660201b60201c565b6000600360006101000a81548160ff02191690836001811115620001ce57620001cd6200043b565b5b0217905550620001ef6735167ee81df8dd6660c01b6200023660201b60201c565b4260008190555062000212672b0c04d7f05e70e660c01b6200023660201b60201c565b8063ffffffff166101008163ffffffff1660e01b815250505050505050506200046a565b50565b600080fd5b600073ffffffffffffffffffffffffffffffffffffffff82169050919050565b60006200026b826200023e565b9050919050565b6200027d816200025e565b81146200028957600080fd5b50565b6000815190506200029d8162000272565b92915050565b600067ffffffffffffffff82169050919050565b620002c281620002a3565b8114620002ce57600080fd5b50565b600081519050620002e281620002b7565b92915050565b6000819050919050565b620002fd81620002e8565b81146200030957600080fd5b50565b6000815190506200031d81620002f2565b92915050565b6000819050919050565b620003388162000323565b81146200034457600080fd5b50565b60008151905062000358816200032d565b92915050565b600063ffffffff82169050919050565b62000379816200035e565b81146200038557600080fd5b50565b60008151905062000399816200036e565b92915050565b60008060008060008060c08789031215620003bf57620003be62000239565b5b6000620003cf89828a016200028c565b9650506020620003e289828a01620002d1565b9550506040620003f589828a016200030c565b94505060606200040889828a0162000347565b93505060806200041b89828a0162000347565b92505060a06200042e89828a0162000388565b9150509295509295509295565b7f4e487b7100000000000000000000000000000000000000000000000000000000600052602160045260246000fd5b60805160601c60a05160601c60c05160c01c60e0516101005160e01c6101205161014051611b31620004e66000396000818161033601526104ab015260008181610bad0152610d1d0152600061091c015260006108d8015260006108f90152600061089c0152600081816103af01526104030152611b316000f3fe6080604052600436106100c25760003560e01c806353a2c19a1161007f57806391ad27b41161005957806391ad27b414610238578063c1c244e814610263578063e55ae4e81461028e578063fd6673f5146102cb576100c2565b806353a2c19a146101a45780635f1b0fd8146101cf5780636e04ff0d146101fa576100c2565b806309bc33a7146100c7578063115cbaf5146100f25780631fe543e31461011d5780632cfcc539146101465780634585e33b14610150578063473f1ddc14610179575b600080fd5b3480156100d357600080fd5b506100dc6102f6565b6040516100e991906112b2565b60405180910390f35b3480156100fe57600080fd5b5061010761035a565b6040516101149190611344565b60405180910390f35b34801561012957600080fd5b50610144600480360381019061013f91906114f8565b6103ad565b005b61014e61046d565b005b34801561015c57600080fd5b50610177600480360381019061017291906115af565b610708565b005b34801561018557600080fd5b5061018e610a0c565b60405161019b919061163d565b60405180910390f35b3480156101b057600080fd5b506101b9610a72565b6040516101c691906112b2565b60405180910390f35b3480156101db57600080fd5b506101e4610abd565b6040516101f191906112b2565b60405180910390f35b34801561020657600080fd5b50610221600480360381019061021c919061170d565b610b06565b60405161022f9291906117f9565b60405180910390f35b34801561024457600080fd5b5061024d610cdd565b60405161025a91906112b2565b60405180910390f35b34801561026f57600080fd5b50610278610d41565b60405161028591906112b2565b60405180910390f35b34801561029a57600080fd5b506102b560048036038101906102b09190611829565b610d87565b6040516102c2919061163d565b60405180910390f35b3480156102d757600080fd5b506102e0610e0b565b6040516102ed91906112b2565b60405180910390f35b600061030c674617831f32acc10760c01b610e54565b610320672099334abde6054860c01b610e54565b61033467a64dfc732ee4d87460c01b610e54565b7f0000000000000000000000000000000000000000000000000000000000000000905090565b60006103706748f23186f9c3fc7c60c01b610e54565b61038467d6f9f1094f6dc8f860c01b610e54565b61039867f80bc92013dbb88c60c01b610e54565b600360009054906101000a900460ff16905090565b7f000000000000000000000000000000000000000000000000000000000000000073ffffffffffffffffffffffffffffffffffffffff163373ffffffffffffffffffffffffffffffffffffffff161461045f57337f00000000000000000000000000000000000000000000000000000000000000006040517f1cf993f4000000000000000000000000000000000000000000000000000000008152600401610456929190611856565b60405180910390fd5b6104698282610e57565b5050565b61048167d2bf4c1806c13b4260c01b610e54565b610495678b705b8be9e3683660c01b610e54565b6104a9673ca7d8339d332e7f60c01b610e54565b7f000000000000000000000000000000000000000000000000000000000000000034101561052b576104e5670d00d641d60a03a260c01b610e54565b6104f967584f840c7b40128960c01b610e54565b6040517f3038c00a00000000000000000000000000000000000000000000000000000000815260040160405180910390fd5b61053f67f74a7976cd1c95b960c01b610e54565b61055367c9d6594e5ea825f660c01b610e54565b61056767b31c221db8fa42ff60c01b610e54565b6000600181111561057b5761057a6112cd565b5b600360009054906101000a900460ff16600181111561059d5761059c6112cd565b5b146105fc576105b66797944685e1920aa660c01b610e54565b6105ca671db3f970ea9cd74360c01b610e54565b6040517fd24a271400000000000000000000000000000000000000000000000000000000815260040160405180910390fd5b61061067bd943cefa8a5045860c01b610e54565b61062467278047c7afd7cb5260c01b610e54565b610638679676746523c1eba660c01b610e54565b6002339080600181540180825580915050600190039060005260206000200160009091909190916101000a81548173ffffffffffffffffffffffffffffffffffffffff021916908373ffffffffffffffffffffffffffffffffffffffff1602179055506106af672b8cd3c86a41732360c01b610e54565b6106c367c98d95e4f1f4fdb860c01b610e54565b3373ffffffffffffffffffffffffffffffffffffffff167f0805e1d667bddb8a95f0f09880cf94f403fb596ce79928d9f29b74203ba284d460405160405180910390a2565b61071c676c1bb6a0aa01b84760c01b610e54565b61073067b476a45fe8e0413a60c01b610e54565b6107446794d4d074f05755c960c01b610e54565b600061075e60405180602001604052806000815250610b06565b5090506107756761f4c9496bc205b460c01b610e54565b61078967c076d57438d5334160c01b610e54565b8061081d576107a267d0046fa43aae2fe160c01b610e54565b6107b66787d216d374f4f71860c01b610e54565b47600280549050600360009054906101000a900460ff1660018111156107df576107de6112cd565b5b6040517f584327aa0000000000000000000000000000000000000000000000000000000081526004016108149392919061187f565b60405180910390fd5b6108316749fcef177b9e80e460c01b610e54565b61084567ecddd758afcbf89560c01b610e54565b6001600360006101000a81548160ff0219169083600181111561086b5761086a6112cd565b5b021790555061088467a73bcdf7d8b8047060c01b610e54565b61089867f1e9af2cc8ed6e4c60c01b610e54565b60007f000000000000000000000000000000000000000000000000000000000000000073ffffffffffffffffffffffffffffffffffffffff16635d3b1d307f00000000000000000000000000000000000000000000000000000000000000007f000000000000000000000000000000000000000000000000000000000000000060037f000000000000000000000000000000000000000000000000000000000000000060016040518663ffffffff1660e01b815260040161095d95949392919061192e565b602060405180830381600087803b15801561097757600080fd5b505af115801561098b573d6000803e3d6000fd5b505050506040513d601f19601f820116820180604052508101906109af9190611996565b90506109c56727a6656838cfa69660c01b610e54565b6109d9676d67935baaecca9a60c01b610e54565b807fcd6e45c8998311cab7e9d4385596cac867e20a0587194b954fa3a731c93ce78b60405160405180910390a250505050565b6000610a2267549124ca17b17bfe60c01b610e54565b610a3667f7528a23556cd23860c01b610e54565b610a4a67b2d88c0efd3a8cd060c01b610e54565b600160009054906101000a900473ffffffffffffffffffffffffffffffffffffffff16905090565b6000610a88671bc22e8e7fcd03a960c01b610e54565b610a9c67df35de90a829f39860c01b610e54565b610ab067019c13d31887b88560c01b610e54565b600163ffffffff16905090565b6000610ad367da360aa319cd142b60c01b610e54565b610ae767df781c00d9685cde60c01b610e54565b610afb67fc4ab0ec768065c360c01b610e54565b600361ffff16905090565b60006060610b1e672c4a090f2e0499a760c01b610e54565b610b3267774dae84ab40b91f60c01b610e54565b610b466749423f6193031ba660c01b610e54565b6000600360009054906101000a900460ff166001811115610b6a57610b696112cd565b5b60006001811115610b7e57610b7d6112cd565b5b149050610b956773881198bb2c26b860c01b610e54565b610ba9677a96eb68e266030760c01b610e54565b60007f000000000000000000000000000000000000000000000000000000000000000060005442610bda91906119f2565b119050610bf167a6624c3080256bb860c01b610e54565b610c056736fa7ba6c7f8d55460c01b610e54565b600080600280549050119050610c2466b2a40a599aa06860c01b610e54565b610c38673f569b033c47df0e60c01b610e54565b60008047119050610c536783c9c92be8e85f5460c01b610e54565b828015610c5d5750835b8015610c665750805b8015610c6f5750815b9550610c85675ee23877da65f35d60c01b610e54565b610c9967bc63fec320d8668960c01b610e54565b856040518060400160405280600381526020017f30783000000000000000000000000000000000000000000000000000000000008152509550955050505050915091565b6000610cf367805599d80e87a17360c01b610e54565b610d0767e24e342b3dfdb92860c01b610e54565b610d1b676d4ae64ed1e5878a60c01b610e54565b7f0000000000000000000000000000000000000000000000000000000000000000905090565b6000610d5767cc728f72572d773660c01b610e54565b610d6b67801c5ce1da5f2cf060c01b610e54565b610d7f6729051081241f0b0560c01b610e54565b600054905090565b6000610d9d672e5561680b198f2260c01b610e54565b610db16766a36449b38e29b560c01b610e54565b610dc5672f25b833211d2d5160c01b610e54565b60028281548110610dd957610dd8611a26565b5b9060005260206000200160009054906101000a900473ffffffffffffffffffffffffffffffffffffffff169050919050565b6000610e2167706db5d2c259280360c01b610e54565b610e35672b2440d364c8bacd60c01b610e54565b610e4967558ef24008d1db5660c01b610e54565b600280549050905090565b50565b610e6b673a4d90237fb4006260c01b610e54565b610e7f67dfd7a00987c83e5160c01b610e54565b610e936780bd144bacab249760c01b610e54565b600060028054905082600081518110610eaf57610eae611a26565b5b6020026020010151610ec19190611a84565b9050610ed76786cb966a27fe9e5e60c01b610e54565b610eeb67220890d8dce27ea460c01b610e54565b600060028281548110610f0157610f00611a26565b5b9060005260206000200160009054906101000a900473ffffffffffffffffffffffffffffffffffffffff169050610f426734c4aab46d41a80a60c01b610e54565b80600160006101000a81548173ffffffffffffffffffffffffffffffffffffffff021916908373ffffffffffffffffffffffffffffffffffffffff160217905550610f97670f04cbfbecac644c60c01b610e54565b600067ffffffffffffffff811115610fb257610fb16113b5565b5b604051908082528060200260200182016040528015610fe05781602001602082028036833780820191505090505b5060029080519060200190610ff69291906111f2565b5061100b67722321b13fd99e2160c01b610e54565b6000600360006101000a81548160ff02191690836001811115611031576110306112cd565b5b021790555061104a67a6edc6d54247ce2b60c01b610e54565b426000819055506110656707abb043df675f5a60c01b610e54565b6110796723fa5f612734849b60c01b610e54565b60008173ffffffffffffffffffffffffffffffffffffffff164760405161109f90611ae6565b60006040518083038185875af1925050503d80600081146110dc576040519150601f19603f3d011682016040523d82523d6000602084013e6110e1565b606091505b505090506110f96753898bcbf0fbb26360c01b610e54565b61110d677f0775382e85892960c01b610e54565b8061116c5761112667ea620d27c175480360c01b610e54565b61113a67f1f7fdd18feea00e60c01b610e54565b6040517fa1d04b3900000000000000000000000000000000000000000000000000000000815260040160405180910390fd5b6111806728160ce8a734e1cf60c01b610e54565b611194677f86b8f54cbd084b60c01b610e54565b6111a867054b688f2ebd35f860c01b610e54565b8173ffffffffffffffffffffffffffffffffffffffff167f5b690ec4a06fe979403046eaeea5b3ce38524683c3001f662c8b5a829632f7df60405160405180910390a25050505050565b82805482825590600052602060002090810192821561126b579160200282015b8281111561126a5782518260006101000a81548173ffffffffffffffffffffffffffffffffffffffff021916908373ffffffffffffffffffffffffffffffffffffffff16021790555091602001919060010190611212565b5b509050611278919061127c565b5090565b5b8082111561129557600081600090555060010161127d565b5090565b6000819050919050565b6112ac81611299565b82525050565b60006020820190506112c760008301846112a3565b92915050565b7f4e487b7100000000000000000000000000000000000000000000000000000000600052602160045260246000fd5b6002811061130d5761130c6112cd565b5b50565b600081905061131e826112fc565b919050565b600061132e82611310565b9050919050565b61133e81611323565b82525050565b60006020820190506113596000830184611335565b92915050565b6000604051905090565b600080fd5b600080fd5b61137c81611299565b811461138757600080fd5b50565b60008135905061139981611373565b92915050565b600080fd5b6000601f19601f8301169050919050565b7f4e487b7100000000000000000000000000000000000000000000000000000000600052604160045260246000fd5b6113ed826113a4565b810181811067ffffffffffffffff8211171561140c5761140b6113b5565b5b80604052505050565b600061141f61135f565b905061142b82826113e4565b919050565b600067ffffffffffffffff82111561144b5761144a6113b5565b5b602082029050602081019050919050565b600080fd5b600061147461146f84611430565b611415565b905080838252602082019050602084028301858111156114975761149661145c565b5b835b818110156114c057806114ac888261138a565b845260208401935050602081019050611499565b5050509392505050565b600082601f8301126114df576114de61139f565b5b81356114ef848260208601611461565b91505092915050565b6000806040838503121561150f5761150e611369565b5b600061151d8582860161138a565b925050602083013567ffffffffffffffff81111561153e5761153d61136e565b5b61154a858286016114ca565b9150509250929050565b600080fd5b60008083601f84011261156f5761156e61139f565b5b8235905067ffffffffffffffff81111561158c5761158b611554565b5b6020830191508360018202830111156115a8576115a761145c565b5b9250929050565b600080602083850312156115c6576115c5611369565b5b600083013567ffffffffffffffff8111156115e4576115e361136e565b5b6115f085828601611559565b92509250509250929050565b600073ffffffffffffffffffffffffffffffffffffffff82169050919050565b6000611627826115fc565b9050919050565b6116378161161c565b82525050565b6000602082019050611652600083018461162e565b92915050565b600080fd5b600067ffffffffffffffff821115611678576116776113b5565b5b611681826113a4565b9050602081019050919050565b82818337600083830152505050565b60006116b06116ab8461165d565b611415565b9050828152602081018484840111156116cc576116cb611658565b5b6116d784828561168e565b509392505050565b600082601f8301126116f4576116f361139f565b5b813561170484826020860161169d565b91505092915050565b60006020828403121561172357611722611369565b5b600082013567ffffffffffffffff8111156117415761174061136e565b5b61174d848285016116df565b91505092915050565b60008115159050919050565b61176b81611756565b82525050565b600081519050919050565b600082825260208201905092915050565b60005b838110156117ab578082015181840152602081019050611790565b838111156117ba576000848401525b50505050565b60006117cb82611771565b6117d5818561177c565b93506117e581856020860161178d565b6117ee816113a4565b840191505092915050565b600060408201905061180e6000830185611762565b818103602083015261182081846117c0565b90509392505050565b60006020828403121561183f5761183e611369565b5b600061184d8482850161138a565b91505092915050565b600060408201905061186b600083018561162e565b611878602083018461162e565b9392505050565b600060608201905061189460008301866112a3565b6118a160208301856112a3565b6118ae60408301846112a3565b949350505050565b6000819050919050565b6118c9816118b6565b82525050565b600067ffffffffffffffff82169050919050565b6118ec816118cf565b82525050565b600061ffff82169050919050565b611909816118f2565b82525050565b600063ffffffff82169050919050565b6119288161190f565b82525050565b600060a08201905061194360008301886118c0565b61195060208301876118e3565b61195d6040830186611900565b61196a606083018561191f565b611977608083018461191f565b9695505050505050565b60008151905061199081611373565b92915050565b6000602082840312156119ac576119ab611369565b5b60006119ba84828501611981565b91505092915050565b7f4e487b7100000000000000000000000000000000000000000000000000000000600052601160045260246000fd5b60006119fd82611299565b9150611a0883611299565b925082821015611a1b57611a1a6119c3565b5b828203905092915050565b7f4e487b7100000000000000000000000000000000000000000000000000000000600052603260045260246000fd5b7f4e487b7100000000000000000000000000000000000000000000000000000000600052601260045260246000fd5b6000611a8f82611299565b9150611a9a83611299565b925082611aaa57611aa9611a55565b5b828206905092915050565b600081905092915050565b50565b6000611ad0600083611ab5565b9150611adb82611ac0565b600082019050919050565b6000611af182611ac3565b915081905091905056fea26469706673582212209c2b5c19a3c8e6d2eaca13ee065fcf33e2a70a813a9b7f9bb0c299ab3e8e285664736f6c63430008080033",
  "linkReferences": {},
  "deployedLinkReferences": {}
}