{
  "_format": "hh-sol-artifact-1",
  "contractName": "RandomIpfsNft",
  "sourceName": "contracts/RandomIpfsNft.sol",
  "abi": [
    {
      "inputs": [
        {
          "internalType": "address",
          "name": "vrfCoordinatorV2",
          "type": "address"
        },
        {
          "internalType": "uint64",
          "name": "subcriptionId",
          "type": "uint64"
        },
        {
          "internalType": "bytes32",
          "name": "gasLane",
          "type": "bytes32"
        },
        {
          "internalType": "uint32",
          "name": "callbackGasLimit",
          "type": "uint32"
        },
        {
          "internalType": "string[3]",
          "name": "dogTokenUris",
          "type": "string[3]"
        },
        {
          "internalType": "uint256",
          "name": "mintFee",
          "type": "uint256"
        }
      ],
      "stateMutability": "nonpayable",
      "type": "constructor"
    },
    {
      "inputs": [
        {
          "internalType": "address",
          "name": "have",
          "type": "address"
        },
        {
          "internalType": "address",
          "name": "want",
          "type": "address"
        }
      ],
      "name": "OnlyCoordinatorCanFulfill",
      "type": "error"
    },
    {
      "inputs": [],
      "name": "RandomIpfsNft__NeedMoreEthSent",
      "type": "error"
    },
    {
      "inputs": [],
      "name": "RandomIpfsNft__ReachOutOfBounds",
      "type": "error"
    },
    {
      "inputs": [],
      "name": "RandomIpfsNft__TransferFailed",
      "type": "error"
    },
    {
      "anonymous": false,
      "inputs": [
        {
          "indexed": true,
          "internalType": "address",
          "name": "owner",
          "type": "address"
        },
        {
          "indexed": true,
          "internalType": "address",
          "name": "approved",
          "type": "address"
        },
        {
          "indexed": true,
          "internalType": "uint256",
          "name": "tokenId",
          "type": "uint256"
        }
      ],
      "name": "Approval",
      "type": "event"
    },
    {
      "anonymous": false,
      "inputs": [
        {
          "indexed": true,
          "internalType": "address",
          "name": "owner",
          "type": "address"
        },
        {
          "indexed": true,
          "internalType": "address",
          "name": "operator",
          "type": "address"
        },
        {
          "indexed": false,
          "internalType": "bool",
          "name": "approved",
          "type": "bool"
        }
      ],
      "name": "ApprovalForAll",
      "type": "event"
    },
    {
      "anonymous": false,
      "inputs": [
        {
          "indexed": false,
          "internalType": "enum RandomIpfsNft.Breed",
          "name": "dogBreed",
          "type": "uint8"
        },
        {
          "indexed": false,
          "internalType": "address",
          "name": "minter",
          "type": "address"
        }
      ],
      "name": "NftMinted",
      "type": "event"
    },
    {
      "anonymous": false,
      "inputs": [
        {
          "indexed": true,
          "internalType": "uint256",
          "name": "requestId",
          "type": "uint256"
        },
        {
          "indexed": false,
          "internalType": "address",
          "name": "requester",
          "type": "address"
        }
      ],
      "name": "NftRequested",
      "type": "event"
    },
    {
      "anonymous": false,
      "inputs": [
        {
          "indexed": true,
          "internalType": "address",
          "name": "previousOwner",
          "type": "address"
        },
        {
          "indexed": true,
          "internalType": "address",
          "name": "newOwner",
          "type": "address"
        }
      ],
      "name": "OwnershipTransferred",
      "type": "event"
    },
    {
      "anonymous": false,
      "inputs": [
        {
          "indexed": true,
          "internalType": "address",
          "name": "from",
          "type": "address"
        },
        {
          "indexed": true,
          "internalType": "address",
          "name": "to",
          "type": "address"
        },
        {
          "indexed": true,
          "internalType": "uint256",
          "name": "tokenId",
          "type": "uint256"
        }
      ],
      "name": "Transfer",
      "type": "event"
    },
    {
      "inputs": [],
      "name": "MAX_CHANCE_VALUE",
      "outputs": [
        {
          "internalType": "uint256",
          "name": "",
          "type": "uint256"
        }
      ],
      "stateMutability": "view",
      "type": "function"
    },
    {
      "inputs": [
        {
          "internalType": "address",
          "name": "to",
          "type": "address"
        },
        {
          "internalType": "uint256",
          "name": "tokenId",
          "type": "uint256"
        }
      ],
      "name": "approve",
      "outputs": [],
      "stateMutability": "nonpayable",
      "type": "function"
    },
    {
      "inputs": [
        {
          "internalType": "address",
          "name": "owner",
          "type": "address"
        }
      ],
      "name": "balanceOf",
      "outputs": [
        {
          "internalType": "uint256",
          "name": "",
          "type": "uint256"
        }
      ],
      "stateMutability": "view",
      "type": "function"
    },
    {
      "inputs": [
        {
          "internalType": "uint256",
          "name": "tokenId",
          "type": "uint256"
        }
      ],
      "name": "getApproved",
      "outputs": [
        {
          "internalType": "address",
          "name": "",
          "type": "address"
        }
      ],
      "stateMutability": "view",
      "type": "function"
    },
    {
      "inputs": [
        {
          "internalType": "uint256",
          "name": "moddedRng",
          "type": "uint256"
        }
      ],
      "name": "getBreedFromModdedRng",
      "outputs": [
        {
          "internalType": "enum RandomIpfsNft.Breed",
          "name": "",
          "type": "uint8"
        }
      ],
      "stateMutability": "pure",
      "type": "function"
    },
    {
      "inputs": [],
      "name": "getChanceArray",
      "outputs": [
        {
          "internalType": "uint256[3]",
          "name": "",
          "type": "uint256[3]"
        }
      ],
      "stateMutability": "pure",
      "type": "function"
    },
    {
      "inputs": [
        {
          "internalType": "uint256",
          "name": "index",
          "type": "uint256"
        }
      ],
      "name": "getDogTokenUris",
      "outputs": [
        {
          "internalType": "string",
          "name": "",
          "type": "string"
        }
      ],
      "stateMutability": "view",
      "type": "function"
    },
    {
      "inputs": [],
      "name": "getMintFee",
      "outputs": [
        {
          "internalType": "uint256",
          "name": "",
          "type": "uint256"
        }
      ],
      "stateMutability": "view",
      "type": "function"
    },
    {
      "inputs": [],
      "name": "getTokenCounter",
      "outputs": [
        {
          "internalType": "uint256",
          "name": "",
          "type": "uint256"
        }
      ],
      "stateMutability": "view",
      "type": "function"
    },
    {
      "inputs": [
        {
          "internalType": "address",
          "name": "owner",
          "type": "address"
        },
        {
          "internalType": "address",
          "name": "operator",
          "type": "address"
        }
      ],
      "name": "isApprovedForAll",
      "outputs": [
        {
          "internalType": "bool",
          "name": "",
          "type": "bool"
        }
      ],
      "stateMutability": "view",
      "type": "function"
    },
    {
      "inputs": [],
      "name": "name",
      "outputs": [
        {
          "internalType": "string",
          "name": "",
          "type": "string"
        }
      ],
      "stateMutability": "view",
      "type": "function"
    },
    {
      "inputs": [],
      "name": "owner",
      "outputs": [
        {
          "internalType": "address",
          "name": "",
          "type": "address"
        }
      ],
      "stateMutability": "view",
      "type": "function"
    },
    {
      "inputs": [
        {
          "internalType": "uint256",
          "name": "tokenId",
          "type": "uint256"
        }
      ],
      "name": "ownerOf",
      "outputs": [
        {
          "internalType": "address",
          "name": "",
          "type": "address"
        }
      ],
      "stateMutability": "view",
      "type": "function"
    },
    {
      "inputs": [
        {
          "internalType": "uint256",
          "name": "requestId",
          "type": "uint256"
        },
        {
          "internalType": "uint256[]",
          "name": "randomWords",
          "type": "uint256[]"
        }
      ],
      "name": "rawFulfillRandomWords",
      "outputs": [],
      "stateMutability": "nonpayable",
      "type": "function"
    },
    {
      "inputs": [],
      "name": "renounceOwnership",
      "outputs": [],
      "stateMutability": "nonpayable",
      "type": "function"
    },
    {
      "inputs": [],
      "name": "requestNft",
      "outputs": [
        {
          "internalType": "uint256",
          "name": "requestId",
          "type": "uint256"
        }
      ],
      "stateMutability": "payable",
      "type": "function"
    },
    {
      "inputs": [
        {
          "internalType": "uint256",
          "name": "",
          "type": "uint256"
        }
      ],
      "name": "s_requestIdToSender",
      "outputs": [
        {
          "internalType": "address",
          "name": "",
          "type": "address"
        }
      ],
      "stateMutability": "view",
      "type": "function"
    },
    {
      "inputs": [],
      "name": "s_tokenCounter",
      "outputs": [
        {
          "internalType": "uint256",
          "name": "",
          "type": "uint256"
        }
      ],
      "stateMutability": "view",
      "type": "function"
    },
    {
      "inputs": [
        {
          "internalType": "address",
          "name": "from",
          "type": "address"
        },
        {
          "internalType": "address",
          "name": "to",
          "type": "address"
        },
        {
          "internalType": "uint256",
          "name": "tokenId",
          "type": "uint256"
        }
      ],
      "name": "safeTransferFrom",
      "outputs": [],
      "stateMutability": "nonpayable",
      "type": "function"
    },
    {
      "inputs": [
        {
          "internalType": "address",
          "name": "from",
          "type": "address"
        },
        {
          "internalType": "address",
          "name": "to",
          "type": "address"
        },
        {
          "internalType": "uint256",
          "name": "tokenId",
          "type": "uint256"
        },
        {
          "internalType": "bytes",
          "name": "data",
          "type": "bytes"
        }
      ],
      "name": "safeTransferFrom",
      "outputs": [],
      "stateMutability": "nonpayable",
      "type": "function"
    },
    {
      "inputs": [
        {
          "internalType": "address",
          "name": "operator",
          "type": "address"
        },
        {
          "internalType": "bool",
          "name": "approved",
          "type": "bool"
        }
      ],
      "name": "setApprovalForAll",
      "outputs": [],
      "stateMutability": "nonpayable",
      "type": "function"
    },
    {
      "inputs": [
        {
          "internalType": "bytes4",
          "name": "interfaceId",
          "type": "bytes4"
        }
      ],
      "name": "supportsInterface",
      "outputs": [
        {
          "internalType": "bool",
          "name": "",
          "type": "bool"
        }
      ],
      "stateMutability": "view",
      "type": "function"
    },
    {
      "inputs": [],
      "name": "symbol",
      "outputs": [
        {
          "internalType": "string",
          "name": "",
          "type": "string"
        }
      ],
      "stateMutability": "view",
      "type": "function"
    },
    {
      "inputs": [
        {
          "internalType": "uint256",
          "name": "tokenId",
          "type": "uint256"
        }
      ],
      "name": "tokenURI",
      "outputs": [
        {
          "internalType": "string",
          "name": "",
          "type": "string"
        }
      ],
      "stateMutability": "view",
      "type": "function"
    },
    {
      "inputs": [
        {
          "internalType": "address",
          "name": "from",
          "type": "address"
        },
        {
          "internalType": "address",
          "name": "to",
          "type": "address"
        },
        {
          "internalType": "uint256",
          "name": "tokenId",
          "type": "uint256"
        }
      ],
      "name": "transferFrom",
      "outputs": [],
      "stateMutability": "nonpayable",
      "type": "function"
    },
    {
      "inputs": [
        {
          "internalType": "address",
          "name": "newOwner",
          "type": "address"
        }
      ],
      "name": "transferOwnership",
      "outputs": [],
      "stateMutability": "nonpayable",
      "type": "function"
    },
    {
      "inputs": [],
      "name": "withdraw",
      "outputs": [],
      "stateMutability": "nonpayable",
      "type": "function"
    }
  ],
  "bytecode": "0x6101406040523480156200001257600080fd5b50604051620045c5380380620045c583398181016040528101906200003891906200080b565b6040518060400160405280600f81526020017f52616e646f6d2069706673206e667400000000000000000000000000000000008152506040518060400160405280600381526020017f52494e0000000000000000000000000000000000000000000000000000000000815250878073ffffffffffffffffffffffffffffffffffffffff1660808173ffffffffffffffffffffffffffffffffffffffff1660601b81525050508160009080519060200190620000f59291906200029e565b5080600190805190602001906200010e9291906200029e565b5050506200013162000125620001d060201b60201c565b620001d860201b60201c565b8573ffffffffffffffffffffffffffffffffffffffff1660a08173ffffffffffffffffffffffffffffffffffffffff1660601b815250508467ffffffffffffffff1660c08167ffffffffffffffff1660c01b815250508360e081815250508263ffffffff166101008163ffffffff1660e01b8152505081600a906003620001ba9291906200032f565b508061012081815250505050505050506200092b565b600033905090565b6000600760009054906101000a900473ffffffffffffffffffffffffffffffffffffffff16905081600760006101000a81548173ffffffffffffffffffffffffffffffffffffffff021916908373ffffffffffffffffffffffffffffffffffffffff1602179055508173ffffffffffffffffffffffffffffffffffffffff168173ffffffffffffffffffffffffffffffffffffffff167f8be0079c531659141344cd1fd0a4f28419497f9722a3daafe3b4186f6b6457e060405160405180910390a35050565b828054620002ac90620008f5565b90600052602060002090601f016020900481019282620002d057600085556200031c565b82601f10620002eb57805160ff19168380011785556200031c565b828001600101855582156200031c579182015b828111156200031b578251825591602001919060010190620002fe565b5b5090506200032b919062000396565b5090565b82805482825590600052602060002090810192821562000383579160200282015b8281111562000382578251829080519060200190620003719291906200029e565b509160200191906001019062000350565b5b509050620003929190620003b5565b5090565b5b80821115620003b157600081600090555060010162000397565b5090565b5b80821115620003d95760008181620003cf9190620003dd565b50600101620003b6565b5090565b508054620003eb90620008f5565b6000825580601f10620003ff575062000420565b601f0160209004906000526020600020908101906200041f919062000396565b5b50565b6000604051905090565b600080fd5b600080fd5b600073ffffffffffffffffffffffffffffffffffffffff82169050919050565b6000620004648262000437565b9050919050565b620004768162000457565b81146200048257600080fd5b50565b60008151905062000496816200046b565b92915050565b600067ffffffffffffffff82169050919050565b620004bb816200049c565b8114620004c757600080fd5b50565b600081519050620004db81620004b0565b92915050565b6000819050919050565b620004f681620004e1565b81146200050257600080fd5b50565b6000815190506200051681620004eb565b92915050565b600063ffffffff82169050919050565b62000537816200051c565b81146200054357600080fd5b50565b60008151905062000557816200052c565b92915050565b600080fd5b6000601f19601f8301169050919050565b7f4e487b7100000000000000000000000000000000000000000000000000000000600052604160045260246000fd5b620005ad8262000562565b810181811067ffffffffffffffff82111715620005cf57620005ce62000573565b5b80604052505050565b6000620005e462000423565b9050620005f28282620005a2565b919050565b600067ffffffffffffffff82111562000615576200061462000573565b5b602082029050919050565b600080fd5b600080fd5b600067ffffffffffffffff82111562000648576200064762000573565b5b620006538262000562565b9050602081019050919050565b60005b838110156200068057808201518184015260208101905062000663565b8381111562000690576000848401525b50505050565b6000620006ad620006a7846200062a565b620005d8565b905082815260208101848484011115620006cc57620006cb62000625565b5b620006d984828562000660565b509392505050565b600082601f830112620006f957620006f86200055d565b5b81516200070b84826020860162000696565b91505092915050565b60006200072b6200072584620005f7565b620005d8565b9050806020840283018581111562000748576200074762000620565b5b835b818110156200079657805167ffffffffffffffff8111156200077157620007706200055d565b5b808601620007808982620006e1565b855260208501945050506020810190506200074a565b5050509392505050565b600082601f830112620007b857620007b76200055d565b5b6003620007c784828562000714565b91505092915050565b6000819050919050565b620007e581620007d0565b8114620007f157600080fd5b50565b6000815190506200080581620007da565b92915050565b60008060008060008060c087890312156200082b576200082a6200042d565b5b60006200083b89828a0162000485565b96505060206200084e89828a01620004ca565b95505060406200086189828a0162000505565b94505060606200087489828a0162000546565b935050608087015167ffffffffffffffff81111562000898576200089762000432565b5b620008a689828a01620007a0565b92505060a0620008b989828a01620007f4565b9150509295509295509295565b7f4e487b7100000000000000000000000000000000000000000000000000000000600052602260045260246000fd5b600060028204905060018216806200090e57607f821691505b60208210811415620009255762000924620008c6565b5b50919050565b60805160601c60a05160601c60c05160c01c60e0516101005160e01c61012051613c306200099560003960008181610d910152610fa00152600061107a015260006110360152600061105701526000610ffa01526000818161096301526109b70152613c306000f3fe60806040526004361061019c5760003560e01c806370a08231116100ec578063a51cccf31161008a578063c87b56dd11610064578063c87b56dd146105bb578063da1b9e29146105f8578063e985e9c514610623578063f2fde38b146106605761019c565b8063a51cccf314610537578063aa15249114610574578063b88d4fde146105925761019c565b80638da5cb5b116100c65780638da5cb5b1461047b57806395d89b41146104a6578063a22cb465146104d1578063a36f573b146104fa5761019c565b806370a08231146103fc578063715018a6146104395780637a5caab3146104505761019c565b806323b872dd1161015957806342842e0e1161013357806342842e0e146103405780635dacf5f4146103695780636352211e146103945780636e02007d146103d15761019c565b806323b872dd146102c35780633af25975146102ec5780633ccfd60b146103295761019c565b806301ffc9a7146101a157806306fdde03146101de578063081812fc14610209578063095ea7b3146102465780630b21a83b1461026f5780631fe543e31461029a575b600080fd5b3480156101ad57600080fd5b506101c860048036038101906101c3919061280f565b610689565b6040516101d59190612857565b60405180910390f35b3480156101ea57600080fd5b506101f361076b565b604051610200919061290b565b60405180910390f35b34801561021557600080fd5b50610230600480360381019061022b9190612963565b6107fd565b60405161023d91906129d1565b60405180910390f35b34801561025257600080fd5b5061026d60048036038101906102689190612a18565b610843565b005b34801561027b57600080fd5b5061028461095b565b6040516102919190612a67565b60405180910390f35b3480156102a657600080fd5b506102c160048036038101906102bc9190612bca565b610961565b005b3480156102cf57600080fd5b506102ea60048036038101906102e59190612c26565b610a21565b005b3480156102f857600080fd5b50610313600480360381019061030e9190612963565b610a81565b604051610320919061290b565b60405180910390f35b34801561033557600080fd5b5061033e610b31565b005b34801561034c57600080fd5b5061036760048036038101906103629190612c26565b610be5565b005b34801561037557600080fd5b5061037e610c05565b60405161038b9190612d24565b60405180910390f35b3480156103a057600080fd5b506103bb60048036038101906103b69190612963565b610c30565b6040516103c891906129d1565b60405180910390f35b3480156103dd57600080fd5b506103e6610cb7565b6040516103f39190612a67565b60405180910390f35b34801561040857600080fd5b50610423600480360381019061041e9190612d3f565b610cc1565b6040516104309190612a67565b60405180910390f35b34801561044557600080fd5b5061044e610d79565b005b34801561045c57600080fd5b50610465610d8d565b6040516104729190612a67565b60405180910390f35b34801561048757600080fd5b50610490610db5565b60405161049d91906129d1565b60405180910390f35b3480156104b257600080fd5b506104bb610ddf565b6040516104c8919061290b565b60405180910390f35b3480156104dd57600080fd5b506104f860048036038101906104f39190612d98565b610e71565b005b34801561050657600080fd5b50610521600480360381019061051c9190612963565b610e87565b60405161052e91906129d1565b60405180910390f35b34801561054357600080fd5b5061055e60048036038101906105599190612963565b610eba565b60405161056b9190612e4f565b60405180910390f35b61057c610f9c565b6040516105899190612a67565b60405180910390f35b34801561059e57600080fd5b506105b960048036038101906105b49190612f1f565b61119c565b005b3480156105c757600080fd5b506105e260048036038101906105dd9190612963565b6111fe565b6040516105ef919061290b565b60405180910390f35b34801561060457600080fd5b5061060d611311565b60405161061a9190612a67565b60405180910390f35b34801561062f57600080fd5b5061064a60048036038101906106459190612fa2565b611316565b6040516106579190612857565b60405180910390f35b34801561066c57600080fd5b5061068760048036038101906106829190612d3f565b6113aa565b005b60007f80ac58cd000000000000000000000000000000000000000000000000000000007bffffffffffffffffffffffffffffffffffffffffffffffffffffffff1916827bffffffffffffffffffffffffffffffffffffffffffffffffffffffff1916148061075457507f5b5e139f000000000000000000000000000000000000000000000000000000007bffffffffffffffffffffffffffffffffffffffffffffffffffffffff1916827bffffffffffffffffffffffffffffffffffffffffffffffffffffffff1916145b8061076457506107638261142e565b5b9050919050565b60606000805461077a90613011565b80601f01602080910402602001604051908101604052809291908181526020018280546107a690613011565b80156107f35780601f106107c8576101008083540402835291602001916107f3565b820191906000526020600020905b8154815290600101906020018083116107d657829003601f168201915b5050505050905090565b600061080882611498565b6004600083815260200190815260200160002060009054906101000a900473ffffffffffffffffffffffffffffffffffffffff169050919050565b600061084e82610c30565b90508073ffffffffffffffffffffffffffffffffffffffff168373ffffffffffffffffffffffffffffffffffffffff1614156108bf576040517f08c379a00000000000000000000000000000000000000000000000000000000081526004016108b6906130b5565b60405180910390fd5b8073ffffffffffffffffffffffffffffffffffffffff166108de6114e3565b73ffffffffffffffffffffffffffffffffffffffff16148061090d575061090c816109076114e3565b611316565b5b61094c576040517f08c379a000000000000000000000000000000000000000000000000000000000815260040161094390613147565b60405180910390fd5b61095683836114eb565b505050565b60095481565b7f000000000000000000000000000000000000000000000000000000000000000073ffffffffffffffffffffffffffffffffffffffff163373ffffffffffffffffffffffffffffffffffffffff1614610a1357337f00000000000000000000000000000000000000000000000000000000000000006040517f1cf993f4000000000000000000000000000000000000000000000000000000008152600401610a0a929190613167565b60405180910390fd5b610a1d82826115a4565b5050565b610a32610a2c6114e3565b82611729565b610a71576040517f08c379a0000000000000000000000000000000000000000000000000000000008152600401610a6890613202565b60405180910390fd5b610a7c8383836117be565b505050565b6060600a8281548110610a9757610a96613222565b5b906000526020600020018054610aac90613011565b80601f0160208091040260200160405190810160405280929190818152602001828054610ad890613011565b8015610b255780601f10610afa57610100808354040283529160200191610b25565b820191906000526020600020905b815481529060010190602001808311610b0857829003601f168201915b50505050509050919050565b610b39611ab8565b600047905060003373ffffffffffffffffffffffffffffffffffffffff1682604051610b6490613282565b60006040518083038185875af1925050503d8060008114610ba1576040519150601f19603f3d011682016040523d82523d6000602084013e610ba6565b606091505b5050905080610be1576040517fca7e25b700000000000000000000000000000000000000000000000000000000815260040160405180910390fd5b5050565b610c008383836040518060200160405280600081525061119c565b505050565b610c0d6126de565b6040518060600160405280600a8152602001601e81526020016064815250905090565b600080610c3c83611b36565b9050600073ffffffffffffffffffffffffffffffffffffffff168173ffffffffffffffffffffffffffffffffffffffff161415610cae576040517f08c379a0000000000000000000000000000000000000000000000000000000008152600401610ca5906132e3565b60405180910390fd5b80915050919050565b6000600954905090565b60008073ffffffffffffffffffffffffffffffffffffffff168273ffffffffffffffffffffffffffffffffffffffff161415610d32576040517f08c379a0000000000000000000000000000000000000000000000000000000008152600401610d2990613375565b60405180910390fd5b600360008373ffffffffffffffffffffffffffffffffffffffff1673ffffffffffffffffffffffffffffffffffffffff168152602001908152602001600020549050919050565b610d81611ab8565b610d8b6000611b73565b565b60007f0000000000000000000000000000000000000000000000000000000000000000905090565b6000600760009054906101000a900473ffffffffffffffffffffffffffffffffffffffff16905090565b606060018054610dee90613011565b80601f0160208091040260200160405190810160405280929190818152602001828054610e1a90613011565b8015610e675780601f10610e3c57610100808354040283529160200191610e67565b820191906000526020600020905b815481529060010190602001808311610e4a57829003601f168201915b5050505050905090565b610e83610e7c6114e3565b8383611c39565b5050565b60086020528060005260406000206000915054906101000a900473ffffffffffffffffffffffffffffffffffffffff1681565b600080600090506000610ecb610c05565b905060005b6003811015610f6457828510158015610f0a5750818160038110610ef757610ef6613222565b5b602002015183610f0791906133c4565b85105b15610f2c57806002811115610f2257610f21612dd8565b5b9350505050610f97565b818160038110610f3f57610f3e613222565b5b602002015183610f4f91906133c4565b92508080610f5c9061341a565b915050610ed0565b506040517f4f386e5a00000000000000000000000000000000000000000000000000000000815260040160405180910390fd5b919050565b60007f0000000000000000000000000000000000000000000000000000000000000000341015610ff8576040517ff64fbfee00000000000000000000000000000000000000000000000000000000815260040160405180910390fd5b7f000000000000000000000000000000000000000000000000000000000000000073ffffffffffffffffffffffffffffffffffffffff16635d3b1d307f00000000000000000000000000000000000000000000000000000000000000007f000000000000000000000000000000000000000000000000000000000000000060037f000000000000000000000000000000000000000000000000000000000000000060016040518663ffffffff1660e01b81526004016110bb9594939291906134db565b602060405180830381600087803b1580156110d557600080fd5b505af11580156110e9573d6000803e3d6000fd5b505050506040513d601f19601f8201168201806040525081019061110d9190613543565b9050336008600083815260200190815260200160002060006101000a81548173ffffffffffffffffffffffffffffffffffffffff021916908373ffffffffffffffffffffffffffffffffffffffff160217905550807ff873236e6cc0ecc5be1a9a35c95ee5b8d1ac4cc7bfef0cc5060391d6cc98e26b3360405161119191906129d1565b60405180910390a290565b6111ad6111a76114e3565b83611729565b6111ec576040517f08c379a00000000000000000000000000000000000000000000000000000000081526004016111e390613202565b60405180910390fd5b6111f884848484611da6565b50505050565b606061120982611498565b600060066000848152602001908152602001600020805461122990613011565b80601f016020809104026020016040519081016040528092919081815260200182805461125590613011565b80156112a25780601f10611277576101008083540402835291602001916112a2565b820191906000526020600020905b81548152906001019060200180831161128557829003601f168201915b5050505050905060006112b3611e02565b90506000815114156112c957819250505061130c565b6000825111156112fe5780826040516020016112e69291906135ac565b6040516020818303038152906040529250505061130c565b61130784611e19565b925050505b919050565b606481565b6000600560008473ffffffffffffffffffffffffffffffffffffffff1673ffffffffffffffffffffffffffffffffffffffff16815260200190815260200160002060008373ffffffffffffffffffffffffffffffffffffffff1673ffffffffffffffffffffffffffffffffffffffff16815260200190815260200160002060009054906101000a900460ff16905092915050565b6113b2611ab8565b600073ffffffffffffffffffffffffffffffffffffffff168173ffffffffffffffffffffffffffffffffffffffff161415611422576040517f08c379a000000000000000000000000000000000000000000000000000000000815260040161141990613642565b60405180910390fd5b61142b81611b73565b50565b60007f01ffc9a7000000000000000000000000000000000000000000000000000000007bffffffffffffffffffffffffffffffffffffffffffffffffffffffff1916827bffffffffffffffffffffffffffffffffffffffffffffffffffffffff1916149050919050565b6114a181611e81565b6114e0576040517f08c379a00000000000000000000000000000000000000000000000000000000081526004016114d7906132e3565b60405180910390fd5b50565b600033905090565b816004600083815260200190815260200160002060006101000a81548173ffffffffffffffffffffffffffffffffffffffff021916908373ffffffffffffffffffffffffffffffffffffffff160217905550808273ffffffffffffffffffffffffffffffffffffffff1661155e83610c30565b73ffffffffffffffffffffffffffffffffffffffff167f8c5be1e5ebec7d5bd14f71427d1e84f3dd0314c0f7b2291e5b200ac8c7c3b92560405160405180910390a45050565b60006008600084815260200190815260200160002060009054906101000a900473ffffffffffffffffffffffffffffffffffffffff1690506000600954905060006064846000815181106115fb576115fa613222565b5b602002602001015161160d9190613691565b9050600061161a82610eba565b90506116268484611ec2565b6116e883600a83600281111561163f5761163e612dd8565b5b815481106116505761164f613222565b5b90600052602060002001805461166590613011565b80601f016020809104026020016040519081016040528092919081815260200182805461169190613011565b80156116de5780601f106116b3576101008083540402835291602001916116de565b820191906000526020600020905b8154815290600101906020018083116116c157829003601f168201915b5050505050611ee0565b7f8a269f26b688e110e9cbd887d163dab35cae678fa353a0292de532c0cac1ecdc81856040516117199291906136c2565b60405180910390a1505050505050565b60008061173583610c30565b90508073ffffffffffffffffffffffffffffffffffffffff168473ffffffffffffffffffffffffffffffffffffffff16148061177757506117768185611316565b5b806117b557508373ffffffffffffffffffffffffffffffffffffffff1661179d846107fd565b73ffffffffffffffffffffffffffffffffffffffff16145b91505092915050565b8273ffffffffffffffffffffffffffffffffffffffff166117de82610c30565b73ffffffffffffffffffffffffffffffffffffffff1614611834576040517f08c379a000000000000000000000000000000000000000000000000000000000815260040161182b9061375d565b60405180910390fd5b600073ffffffffffffffffffffffffffffffffffffffff168273ffffffffffffffffffffffffffffffffffffffff1614156118a4576040517f08c379a000000000000000000000000000000000000000000000000000000000815260040161189b906137ef565b60405180910390fd5b6118b18383836001611f54565b8273ffffffffffffffffffffffffffffffffffffffff166118d182610c30565b73ffffffffffffffffffffffffffffffffffffffff1614611927576040517f08c379a000000000000000000000000000000000000000000000000000000000815260040161191e9061375d565b60405180910390fd5b6004600082815260200190815260200160002060006101000a81549073ffffffffffffffffffffffffffffffffffffffff02191690556001600360008573ffffffffffffffffffffffffffffffffffffffff1673ffffffffffffffffffffffffffffffffffffffff168152602001908152602001600020600082825403925050819055506001600360008473ffffffffffffffffffffffffffffffffffffffff1673ffffffffffffffffffffffffffffffffffffffff16815260200190815260200160002060008282540192505081905550816002600083815260200190815260200160002060006101000a81548173ffffffffffffffffffffffffffffffffffffffff021916908373ffffffffffffffffffffffffffffffffffffffff160217905550808273ffffffffffffffffffffffffffffffffffffffff168473ffffffffffffffffffffffffffffffffffffffff167fddf252ad1be2c89b69c2b068fc378daa952ba7f163c4a11628f55a4df523b3ef60405160405180910390a4611ab3838383600161207a565b505050565b611ac06114e3565b73ffffffffffffffffffffffffffffffffffffffff16611ade610db5565b73ffffffffffffffffffffffffffffffffffffffff1614611b34576040517f08c379a0000000000000000000000000000000000000000000000000000000008152600401611b2b9061385b565b60405180910390fd5b565b60006002600083815260200190815260200160002060009054906101000a900473ffffffffffffffffffffffffffffffffffffffff169050919050565b6000600760009054906101000a900473ffffffffffffffffffffffffffffffffffffffff16905081600760006101000a81548173ffffffffffffffffffffffffffffffffffffffff021916908373ffffffffffffffffffffffffffffffffffffffff1602179055508173ffffffffffffffffffffffffffffffffffffffff168173ffffffffffffffffffffffffffffffffffffffff167f8be0079c531659141344cd1fd0a4f28419497f9722a3daafe3b4186f6b6457e060405160405180910390a35050565b8173ffffffffffffffffffffffffffffffffffffffff168373ffffffffffffffffffffffffffffffffffffffff161415611ca8576040517f08c379a0000000000000000000000000000000000000000000000000000000008152600401611c9f906138c7565b60405180910390fd5b80600560008573ffffffffffffffffffffffffffffffffffffffff1673ffffffffffffffffffffffffffffffffffffffff16815260200190815260200160002060008473ffffffffffffffffffffffffffffffffffffffff1673ffffffffffffffffffffffffffffffffffffffff16815260200190815260200160002060006101000a81548160ff0219169083151502179055508173ffffffffffffffffffffffffffffffffffffffff168373ffffffffffffffffffffffffffffffffffffffff167f17307eab39ab6107e8899845ad3d59bd9653f200f220920489ca2b5937696c3183604051611d999190612857565b60405180910390a3505050565b611db18484846117be565b611dbd84848484612080565b611dfc576040517f08c379a0000000000000000000000000000000000000000000000000000000008152600401611df390613959565b60405180910390fd5b50505050565b606060405180602001604052806000815250905090565b6060611e2482611498565b6000611e2e611e02565b90506000815111611e4e5760405180602001604052806000815250611e79565b80611e5884612217565b604051602001611e699291906135ac565b6040516020818303038152906040525b915050919050565b60008073ffffffffffffffffffffffffffffffffffffffff16611ea383611b36565b73ffffffffffffffffffffffffffffffffffffffff1614159050919050565b611edc8282604051806020016040528060008152506122ef565b5050565b611ee982611e81565b611f28576040517f08c379a0000000000000000000000000000000000000000000000000000000008152600401611f1f906139eb565b60405180910390fd5b80600660008481526020019081526020016000209080519060200190611f4f929190612700565b505050565b600181111561207457600073ffffffffffffffffffffffffffffffffffffffff168473ffffffffffffffffffffffffffffffffffffffff1614611fe85780600360008673ffffffffffffffffffffffffffffffffffffffff1673ffffffffffffffffffffffffffffffffffffffff1681526020019081526020016000206000828254611fe09190613a0b565b925050819055505b600073ffffffffffffffffffffffffffffffffffffffff168373ffffffffffffffffffffffffffffffffffffffff16146120735780600360008573ffffffffffffffffffffffffffffffffffffffff1673ffffffffffffffffffffffffffffffffffffffff168152602001908152602001600020600082825461206b91906133c4565b925050819055505b5b50505050565b50505050565b60006120a18473ffffffffffffffffffffffffffffffffffffffff1661234a565b1561220a578373ffffffffffffffffffffffffffffffffffffffff1663150b7a026120ca6114e3565b8786866040518563ffffffff1660e01b81526004016120ec9493929190613a94565b602060405180830381600087803b15801561210657600080fd5b505af192505050801561213757506040513d601f19601f820116820180604052508101906121349190613af5565b60015b6121ba573d8060008114612167576040519150601f19603f3d011682016040523d82523d6000602084013e61216c565b606091505b506000815114156121b2576040517f08c379a00000000000000000000000000000000000000000000000000000000081526004016121a990613959565b60405180910390fd5b805181602001fd5b63150b7a0260e01b7bffffffffffffffffffffffffffffffffffffffffffffffffffffffff1916817bffffffffffffffffffffffffffffffffffffffffffffffffffffffff19161491505061220f565b600190505b949350505050565b6060600060016122268461236d565b01905060008167ffffffffffffffff81111561224557612244612a87565b5b6040519080825280601f01601f1916602001820160405280156122775781602001600182028036833780820191505090505b509050600082602001820190505b6001156122e4578080600190039150507f3031323334353637383961626364656600000000000000000000000000000000600a86061a8153600a85816122ce576122cd613662565b5b04945060008514156122df576122e4565b612285565b819350505050919050565b6122f983836124c0565b6123066000848484612080565b612345576040517f08c379a000000000000000000000000000000000000000000000000000000000815260040161233c90613959565b60405180910390fd5b505050565b6000808273ffffffffffffffffffffffffffffffffffffffff163b119050919050565b600080600090507a184f03e93ff9f4daa797ed6e38ed64bf6a1f01000000000000000083106123cb577a184f03e93ff9f4daa797ed6e38ed64bf6a1f01000000000000000083816123c1576123c0613662565b5b0492506040810190505b6d04ee2d6d415b85acef81000000008310612408576d04ee2d6d415b85acef810000000083816123fe576123fd613662565b5b0492506020810190505b662386f26fc10000831061243757662386f26fc10000838161242d5761242c613662565b5b0492506010810190505b6305f5e1008310612460576305f5e100838161245657612455613662565b5b0492506008810190505b612710831061248557612710838161247b5761247a613662565b5b0492506004810190505b606483106124a8576064838161249e5761249d613662565b5b0492506002810190505b600a83106124b7576001810190505b80915050919050565b600073ffffffffffffffffffffffffffffffffffffffff168273ffffffffffffffffffffffffffffffffffffffff161415612530576040517f08c379a000000000000000000000000000000000000000000000000000000000815260040161252790613b6e565b60405180910390fd5b61253981611e81565b15612579576040517f08c379a000000000000000000000000000000000000000000000000000000000815260040161257090613bda565b60405180910390fd5b612587600083836001611f54565b61259081611e81565b156125d0576040517f08c379a00000000000000000000000000000000000000000000000000000000081526004016125c790613bda565b60405180910390fd5b6001600360008473ffffffffffffffffffffffffffffffffffffffff1673ffffffffffffffffffffffffffffffffffffffff16815260200190815260200160002060008282540192505081905550816002600083815260200190815260200160002060006101000a81548173ffffffffffffffffffffffffffffffffffffffff021916908373ffffffffffffffffffffffffffffffffffffffff160217905550808273ffffffffffffffffffffffffffffffffffffffff16600073ffffffffffffffffffffffffffffffffffffffff167fddf252ad1be2c89b69c2b068fc378daa952ba7f163c4a11628f55a4df523b3ef60405160405180910390a46126da60008383600161207a565b5050565b6040518060600160405280600390602082028036833780820191505090505090565b82805461270c90613011565b90600052602060002090601f01602090048101928261272e5760008555612775565b82601f1061274757805160ff1916838001178555612775565b82800160010185558215612775579182015b82811115612774578251825591602001919060010190612759565b5b5090506127829190612786565b5090565b5b8082111561279f576000816000905550600101612787565b5090565b6000604051905090565b600080fd5b600080fd5b60007fffffffff0000000000000000000000000000000000000000000000000000000082169050919050565b6127ec816127b7565b81146127f757600080fd5b50565b600081359050612809816127e3565b92915050565b600060208284031215612825576128246127ad565b5b6000612833848285016127fa565b91505092915050565b60008115159050919050565b6128518161283c565b82525050565b600060208201905061286c6000830184612848565b92915050565b600081519050919050565b600082825260208201905092915050565b60005b838110156128ac578082015181840152602081019050612891565b838111156128bb576000848401525b50505050565b6000601f19601f8301169050919050565b60006128dd82612872565b6128e7818561287d565b93506128f781856020860161288e565b612900816128c1565b840191505092915050565b6000602082019050818103600083015261292581846128d2565b905092915050565b6000819050919050565b6129408161292d565b811461294b57600080fd5b50565b60008135905061295d81612937565b92915050565b600060208284031215612979576129786127ad565b5b60006129878482850161294e565b91505092915050565b600073ffffffffffffffffffffffffffffffffffffffff82169050919050565b60006129bb82612990565b9050919050565b6129cb816129b0565b82525050565b60006020820190506129e660008301846129c2565b92915050565b6129f5816129b0565b8114612a0057600080fd5b50565b600081359050612a12816129ec565b92915050565b60008060408385031215612a2f57612a2e6127ad565b5b6000612a3d85828601612a03565b9250506020612a4e8582860161294e565b9150509250929050565b612a618161292d565b82525050565b6000602082019050612a7c6000830184612a58565b92915050565b600080fd5b7f4e487b7100000000000000000000000000000000000000000000000000000000600052604160045260246000fd5b612abf826128c1565b810181811067ffffffffffffffff82111715612ade57612add612a87565b5b80604052505050565b6000612af16127a3565b9050612afd8282612ab6565b919050565b600067ffffffffffffffff821115612b1d57612b1c612a87565b5b602082029050602081019050919050565b600080fd5b6000612b46612b4184612b02565b612ae7565b90508083825260208201905060208402830185811115612b6957612b68612b2e565b5b835b81811015612b925780612b7e888261294e565b845260208401935050602081019050612b6b565b5050509392505050565b600082601f830112612bb157612bb0612a82565b5b8135612bc1848260208601612b33565b91505092915050565b60008060408385031215612be157612be06127ad565b5b6000612bef8582860161294e565b925050602083013567ffffffffffffffff811115612c1057612c0f6127b2565b5b612c1c85828601612b9c565b9150509250929050565b600080600060608486031215612c3f57612c3e6127ad565b5b6000612c4d86828701612a03565b9350506020612c5e86828701612a03565b9250506040612c6f8682870161294e565b9150509250925092565b600060039050919050565b600081905092915050565b6000819050919050565b612ca28161292d565b82525050565b6000612cb48383612c99565b60208301905092915050565b6000602082019050919050565b612cd681612c79565b612ce08184612c84565b9250612ceb82612c8f565b8060005b83811015612d1c578151612d038782612ca8565b9650612d0e83612cc0565b925050600181019050612cef565b505050505050565b6000606082019050612d396000830184612ccd565b92915050565b600060208284031215612d5557612d546127ad565b5b6000612d6384828501612a03565b91505092915050565b612d758161283c565b8114612d8057600080fd5b50565b600081359050612d9281612d6c565b92915050565b60008060408385031215612daf57612dae6127ad565b5b6000612dbd85828601612a03565b9250506020612dce85828601612d83565b9150509250929050565b7f4e487b7100000000000000000000000000000000000000000000000000000000600052602160045260246000fd5b60038110612e1857612e17612dd8565b5b50565b6000819050612e2982612e07565b919050565b6000612e3982612e1b565b9050919050565b612e4981612e2e565b82525050565b6000602082019050612e646000830184612e40565b92915050565b600080fd5b600067ffffffffffffffff821115612e8a57612e89612a87565b5b612e93826128c1565b9050602081019050919050565b82818337600083830152505050565b6000612ec2612ebd84612e6f565b612ae7565b905082815260208101848484011115612ede57612edd612e6a565b5b612ee9848285612ea0565b509392505050565b600082601f830112612f0657612f05612a82565b5b8135612f16848260208601612eaf565b91505092915050565b60008060008060808587031215612f3957612f386127ad565b5b6000612f4787828801612a03565b9450506020612f5887828801612a03565b9350506040612f698782880161294e565b925050606085013567ffffffffffffffff811115612f8a57612f896127b2565b5b612f9687828801612ef1565b91505092959194509250565b60008060408385031215612fb957612fb86127ad565b5b6000612fc785828601612a03565b9250506020612fd885828601612a03565b9150509250929050565b7f4e487b7100000000000000000000000000000000000000000000000000000000600052602260045260246000fd5b6000600282049050600182168061302957607f821691505b6020821081141561303d5761303c612fe2565b5b50919050565b7f4552433732313a20617070726f76616c20746f2063757272656e74206f776e6560008201527f7200000000000000000000000000000000000000000000000000000000000000602082015250565b600061309f60218361287d565b91506130aa82613043565b604082019050919050565b600060208201905081810360008301526130ce81613092565b9050919050565b7f4552433732313a20617070726f76652063616c6c6572206973206e6f7420746f60008201527f6b656e206f776e6572206f7220617070726f76656420666f7220616c6c000000602082015250565b6000613131603d8361287d565b915061313c826130d5565b604082019050919050565b6000602082019050818103600083015261316081613124565b9050919050565b600060408201905061317c60008301856129c2565b61318960208301846129c2565b9392505050565b7f4552433732313a2063616c6c6572206973206e6f7420746f6b656e206f776e6560008201527f72206f7220617070726f76656400000000000000000000000000000000000000602082015250565b60006131ec602d8361287d565b91506131f782613190565b604082019050919050565b6000602082019050818103600083015261321b816131df565b9050919050565b7f4e487b7100000000000000000000000000000000000000000000000000000000600052603260045260246000fd5b600081905092915050565b50565b600061326c600083613251565b91506132778261325c565b600082019050919050565b600061328d8261325f565b9150819050919050565b7f4552433732313a20696e76616c696420746f6b656e2049440000000000000000600082015250565b60006132cd60188361287d565b91506132d882613297565b602082019050919050565b600060208201905081810360008301526132fc816132c0565b9050919050565b7f4552433732313a2061646472657373207a65726f206973206e6f74206120766160008201527f6c6964206f776e65720000000000000000000000000000000000000000000000602082015250565b600061335f60298361287d565b915061336a82613303565b604082019050919050565b6000602082019050818103600083015261338e81613352565b9050919050565b7f4e487b7100000000000000000000000000000000000000000000000000000000600052601160045260246000fd5b60006133cf8261292d565b91506133da8361292d565b9250827fffffffffffffffffffffffffffffffffffffffffffffffffffffffffffffffff0382111561340f5761340e613395565b5b828201905092915050565b60006134258261292d565b91507fffffffffffffffffffffffffffffffffffffffffffffffffffffffffffffffff82141561345857613457613395565b5b600182019050919050565b6000819050919050565b61347681613463565b82525050565b600067ffffffffffffffff82169050919050565b6134998161347c565b82525050565b600061ffff82169050919050565b6134b68161349f565b82525050565b600063ffffffff82169050919050565b6134d5816134bc565b82525050565b600060a0820190506134f0600083018861346d565b6134fd6020830187613490565b61350a60408301866134ad565b61351760608301856134cc565b61352460808301846134cc565b9695505050505050565b60008151905061353d81612937565b92915050565b600060208284031215613559576135586127ad565b5b60006135678482850161352e565b91505092915050565b600081905092915050565b600061358682612872565b6135908185613570565b93506135a081856020860161288e565b80840191505092915050565b60006135b8828561357b565b91506135c4828461357b565b91508190509392505050565b7f4f776e61626c653a206e6577206f776e657220697320746865207a65726f206160008201527f6464726573730000000000000000000000000000000000000000000000000000602082015250565b600061362c60268361287d565b9150613637826135d0565b604082019050919050565b6000602082019050818103600083015261365b8161361f565b9050919050565b7f4e487b7100000000000000000000000000000000000000000000000000000000600052601260045260246000fd5b600061369c8261292d565b91506136a78361292d565b9250826136b7576136b6613662565b5b828206905092915050565b60006040820190506136d76000830185612e40565b6136e460208301846129c2565b9392505050565b7f4552433732313a207472616e736665722066726f6d20696e636f72726563742060008201527f6f776e6572000000000000000000000000000000000000000000000000000000602082015250565b600061374760258361287d565b9150613752826136eb565b604082019050919050565b600060208201905081810360008301526137768161373a565b9050919050565b7f4552433732313a207472616e7366657220746f20746865207a65726f2061646460008201527f7265737300000000000000000000000000000000000000000000000000000000602082015250565b60006137d960248361287d565b91506137e48261377d565b604082019050919050565b60006020820190508181036000830152613808816137cc565b9050919050565b7f4f776e61626c653a2063616c6c6572206973206e6f7420746865206f776e6572600082015250565b600061384560208361287d565b91506138508261380f565b602082019050919050565b6000602082019050818103600083015261387481613838565b9050919050565b7f4552433732313a20617070726f766520746f2063616c6c657200000000000000600082015250565b60006138b160198361287d565b91506138bc8261387b565b602082019050919050565b600060208201905081810360008301526138e0816138a4565b9050919050565b7f4552433732313a207472616e7366657220746f206e6f6e20455243373231526560008201527f63656976657220696d706c656d656e7465720000000000000000000000000000602082015250565b600061394360328361287d565b915061394e826138e7565b604082019050919050565b6000602082019050818103600083015261397281613936565b9050919050565b7f45524337323155524953746f726167653a2055524920736574206f66206e6f6e60008201527f6578697374656e7420746f6b656e000000000000000000000000000000000000602082015250565b60006139d5602e8361287d565b91506139e082613979565b604082019050919050565b60006020820190508181036000830152613a04816139c8565b9050919050565b6000613a168261292d565b9150613a218361292d565b925082821015613a3457613a33613395565b5b828203905092915050565b600081519050919050565b600082825260208201905092915050565b6000613a6682613a3f565b613a708185613a4a565b9350613a8081856020860161288e565b613a89816128c1565b840191505092915050565b6000608082019050613aa960008301876129c2565b613ab660208301866129c2565b613ac36040830185612a58565b8181036060830152613ad58184613a5b565b905095945050505050565b600081519050613aef816127e3565b92915050565b600060208284031215613b0b57613b0a6127ad565b5b6000613b1984828501613ae0565b91505092915050565b7f4552433732313a206d696e7420746f20746865207a65726f2061646472657373600082015250565b6000613b5860208361287d565b9150613b6382613b22565b602082019050919050565b60006020820190508181036000830152613b8781613b4b565b9050919050565b7f4552433732313a20746f6b656e20616c7265616479206d696e74656400000000600082015250565b6000613bc4601c8361287d565b9150613bcf82613b8e565b602082019050919050565b60006020820190508181036000830152613bf381613bb7565b905091905056fea2646970667358221220a071956317c55ab19d36967d39de1a6459462ecbf5c87e958a04ffbf4d75ab0764736f6c63430008080033",
  "linkReferences": {},
  "deployedLinkReferences": {}
}